{
  "_format": "hh-sol-artifact-1",
  "contractName": "GasSponsorLedger",
  "sourceName": "contracts/GasSponsorLedger.sol",
  "abi": [
    {
      "inputs": [
        {
          "internalType": "address",
          "name": "initialOwner",
          "type": "address"
        },
        {
          "internalType": "uint256",
          "name": "initialMaxClaim",
          "type": "uint256"
        }
      ],
      "stateMutability": "nonpayable",
      "type": "constructor"
    },
    {
      "inputs": [],
      "name": "AlreadyClaimed",
      "type": "error"
    },
    {
      "inputs": [],
      "name": "EnforcedPause",
      "type": "error"
    },
    {
      "inputs": [],
      "name": "ExpectedPause",
      "type": "error"
    },
    {
      "inputs": [],
      "name": "InsufficientTreasury",
      "type": "error"
    },
    {
      "inputs": [],
      "name": "InvalidMaxClaim",
      "type": "error"
    },
    {
      "inputs": [],
      "name": "NotRelayer",
      "type": "error"
    },
    {
      "inputs": [
        {
          "internalType": "address",
          "name": "owner",
          "type": "address"
        }
      ],
      "name": "OwnableInvalidOwner",
      "type": "error"
    },
    {
      "inputs": [
        {
          "internalType": "address",
          "name": "account",
          "type": "address"
        }
      ],
      "name": "OwnableUnauthorizedAccount",
      "type": "error"
    },
    {
      "inputs": [],
      "name": "ReentrancyGuardReentrantCall",
      "type": "error"
    },
    {
      "inputs": [],
      "name": "TransferFailed",
      "type": "error"
    },
    {
      "inputs": [],
      "name": "ZeroAddress",
      "type": "error"
    },
    {
      "inputs": [],
      "name": "ZeroAmount",
      "type": "error"
    },
    {
      "anonymous": false,
      "inputs": [
        {
          "indexed": true,
          "internalType": "address",
          "name": "to",
          "type": "address"
        },
        {
          "indexed": false,
          "internalType": "uint256",
          "name": "amount",
          "type": "uint256"
        }
      ],
      "name": "EmergencyWithdraw",
      "type": "event"
    },
    {
      "anonymous": false,
      "inputs": [
        {
          "indexed": true,
          "internalType": "address",
          "name": "claimer",
          "type": "address"
        },
        {
          "indexed": false,
          "internalType": "uint256",
          "name": "amount",
          "type": "uint256"
        },
        {
          "indexed": false,
          "internalType": "uint256",
          "name": "treasuryBalance",
          "type": "uint256"
        }
      ],
      "name": "GasClaimed",
      "type": "event"
    },
    {
      "anonymous": false,
      "inputs": [
        {
          "indexed": false,
          "internalType": "uint256",
          "name": "oldAmount",
          "type": "uint256"
        },
        {
          "indexed": false,
          "internalType": "uint256",
          "name": "newAmount",
          "type": "uint256"
        }
      ],
      "name": "MaxClaimUpdated",
      "type": "event"
    },
    {
      "anonymous": false,
      "inputs": [
        {
          "indexed": true,
          "internalType": "address",
          "name": "previousOwner",
          "type": "address"
        },
        {
          "indexed": true,
          "internalType": "address",
          "name": "newOwner",
          "type": "address"
        }
      ],
      "name": "OwnershipTransferred",
      "type": "event"
    },
    {
      "anonymous": false,
      "inputs": [
        {
          "indexed": false,
          "internalType": "address",
          "name": "account",
          "type": "address"
        }
      ],
      "name": "Paused",
      "type": "event"
    },
    {
      "anonymous": false,
      "inputs": [
        {
          "indexed": true,
          "internalType": "address",
          "name": "oldRelayer",
          "type": "address"
        },
        {
          "indexed": true,
          "internalType": "address",
          "name": "newRelayer",
          "type": "address"
        }
      ],
      "name": "RelayerUpdated",
      "type": "event"
    },
    {
      "anonymous": false,
      "inputs": [
        {
          "indexed": true,
          "internalType": "address",
          "name": "sponsor",
          "type": "address"
        },
        {
          "indexed": false,
          "internalType": "uint256",
          "name": "amount",
          "type": "uint256"
        },
        {
          "indexed": false,
          "internalType": "uint256",
          "name": "treasuryBalance",
          "type": "uint256"
        }
      ],
      "name": "SponsorDeposited",
      "type": "event"
    },
    {
      "anonymous": false,
      "inputs": [
        {
          "indexed": true,
          "internalType": "address",
          "name": "to",
          "type": "address"
        },
        {
          "indexed": false,
          "internalType": "uint256",
          "name": "amount",
          "type": "uint256"
        },
        {
          "indexed": false,
          "internalType": "uint256",
          "name": "treasuryBalance",
          "type": "uint256"
        }
      ],
      "name": "TreasuryWithdrawn",
      "type": "event"
    },
    {
      "anonymous": false,
      "inputs": [
        {
          "indexed": false,
          "internalType": "address",
          "name": "account",
          "type": "address"
        }
      ],
      "name": "Unpaused",
      "type": "event"
    },
    {
      "inputs": [
        {
          "internalType": "address",
          "name": "account",
          "type": "address"
        }
      ],
      "name": "canClaim",
      "outputs": [
        {
          "internalType": "bool",
          "name": "",
          "type": "bool"
        }
      ],
      "stateMutability": "view",
      "type": "function"
    },
    {
      "inputs": [],
      "name": "claim",
      "outputs": [],
      "stateMutability": "nonpayable",
      "type": "function"
    },
    {
      "inputs": [
        {
          "internalType": "address",
          "name": "recipient",
          "type": "address"
        }
      ],
      "name": "claimFor",
      "outputs": [],
      "stateMutability": "nonpayable",
      "type": "function"
    },
    {
      "inputs": [],
      "name": "deposit",
      "outputs": [],
      "stateMutability": "payable",
      "type": "function"
    },
    {
      "inputs": [],
      "name": "depositCount",
      "outputs": [
        {
          "internalType": "uint256",
          "name": "",
          "type": "uint256"
        }
      ],
      "stateMutability": "view",
      "type": "function"
    },
    {
      "inputs": [
        {
          "internalType": "address",
          "name": "to",
          "type": "address"
        }
      ],
      "name": "emergencyWithdraw",
      "outputs": [],
      "stateMutability": "nonpayable",
      "type": "function"
    },
    {
      "inputs": [],
      "name": "getStats",
      "outputs": [
        {
          "internalType": "uint256",
          "name": "_treasuryBalance",
          "type": "uint256"
        },
        {
          "internalType": "uint256",
          "name": "_maxClaimAmount",
          "type": "uint256"
        },
        {
          "internalType": "uint256",
          "name": "_totalSponsored",
          "type": "uint256"
        },
        {
          "internalType": "uint256",
          "name": "_totalClaimed",
          "type": "uint256"
        },
        {
          "internalType": "uint256",
          "name": "_usersHelped",
          "type": "uint256"
        },
        {
          "internalType": "uint256",
          "name": "_depositCount",
          "type": "uint256"
        },
        {
          "internalType": "bool",
          "name": "_paused",
          "type": "bool"
        }
      ],
      "stateMutability": "view",
      "type": "function"
    },
    {
      "inputs": [
        {
          "internalType": "address",
          "name": "",
          "type": "address"
        }
      ],
      "name": "hasClaimed",
      "outputs": [
        {
          "internalType": "bool",
          "name": "",
          "type": "bool"
        }
      ],
      "stateMutability": "view",
      "type": "function"
    },
    {
      "inputs": [],
      "name": "maxClaimAmount",
      "outputs": [
        {
          "internalType": "uint256",
          "name": "",
          "type": "uint256"
        }
      ],
      "stateMutability": "view",
      "type": "function"
    },
    {
      "inputs": [],
      "name": "owner",
      "outputs": [
        {
          "internalType": "address",
          "name": "",
          "type": "address"
        }
      ],
      "stateMutability": "view",
      "type": "function"
    },
    {
      "inputs": [],
      "name": "pause",
      "outputs": [],
      "stateMutability": "nonpayable",
      "type": "function"
    },
    {
      "inputs": [],
      "name": "paused",
      "outputs": [
        {
          "internalType": "bool",
          "name": "",
          "type": "bool"
        }
      ],
      "stateMutability": "view",
      "type": "function"
    },
    {
      "inputs": [],
      "name": "relayer",
      "outputs": [
        {
          "internalType": "address",
          "name": "",
          "type": "address"
        }
      ],
      "stateMutability": "view",
      "type": "function"
    },
    {
      "inputs": [
        {
          "internalType": "uint256",
          "name": "newMax",
          "type": "uint256"
        }
      ],
      "name": "setMaxClaimAmount",
      "outputs": [],
      "stateMutability": "nonpayable",
      "type": "function"
    },
    {
      "inputs": [
        {
          "internalType": "address",
          "name": "newRelayer",
          "type": "address"
        }
      ],
      "name": "setRelayer",
      "outputs": [],
      "stateMutability": "nonpayable",
      "type": "function"
    },
    {
      "inputs": [],
      "name": "totalClaimed",
      "outputs": [
        {
          "internalType": "uint256",
          "name": "",
          "type": "uint256"
        }
      ],
      "stateMutability": "view",
      "type": "function"
    },
    {
      "inputs": [],
      "name": "totalSponsored",
      "outputs": [
        {
          "internalType": "uint256",
          "name": "",
          "type": "uint256"
        }
      ],
      "stateMutability": "view",
      "type": "function"
    },
    {
      "inputs": [
        {
          "internalType": "address",
          "name": "newOwner",
          "type": "address"
        }
      ],
      "name": "transferOwnership",
      "outputs": [],
      "stateMutability": "nonpayable",
      "type": "function"
    },
    {
      "inputs": [],
      "name": "treasuryBalance",
      "outputs": [
        {
          "internalType": "uint256",
          "name": "",
          "type": "uint256"
        }
      ],
      "stateMutability": "view",
      "type": "function"
    },
    {
      "inputs": [],
      "name": "unpause",
      "outputs": [],
      "stateMutability": "nonpayable",
      "type": "function"
    },
    {
      "inputs": [],
      "name": "usersHelped",
      "outputs": [
        {
          "internalType": "uint256",
          "name": "",
          "type": "uint256"
        }
      ],
      "stateMutability": "view",
      "type": "function"
    },
    {
      "inputs": [
        {
          "internalType": "address",
          "name": "to",
          "type": "address"
        },
        {
          "internalType": "uint256",
          "name": "amount",
          "type": "uint256"
        }
      ],
      "name": "withdrawTreasury",
      "outputs": [],
      "stateMutability": "nonpayable",
      "type": "function"
    },
    {
      "stateMutability": "payable",
      "type": "receive"
    }
  ],
  "bytecode": "0x608060405234801561001057600080fd5b50604051610f66380380610f6683398101604081905261002f91610166565b816001600160a01b03811661005e57604051631e4fbdf760e01b81526000600482015260240160405180910390fd5b61006781610116565b506000805460ff60a01b19169055600180556001600160a01b0382166100a05760405163d92e233d60e01b815260040160405180910390fd5b806000036100c15760405163dc6b7a6d60e01b815260040160405180910390fd5b6002819055600980546001600160a01b0319166001600160a01b0384169081179091556040516000907f605ca4e43489fb38b91aa63dd9147cd3847957694b080b9285ec898b34269f0c908290a350506101a0565b600080546001600160a01b038381166001600160a01b0319831681178455604051919092169283917f8be0079c531659141344cd1fd0a4f28419497f9722a3daafe3b4186f6b6457e09190a35050565b6000806040838503121561017957600080fd5b82516001600160a01b038116811461019057600080fd5b6020939093015192949293505050565b610db7806101af6000396000f3fe6080604052600436106101395760003560e01c80638406c079116100ab578063c59d48471161006f578063c59d4847146103e0578063d0e30db01461042c578063d54ad2a114610434578063ddeae0331461044a578063eb0ebfbc1461046a578063f2fde38b1461048057600080fd5b80638406c0791461033f5780638456cb59146103775780638da5cb5b1461038c578063aeef6439146103aa578063bf3506c1146103c057600080fd5b80634e71d92d116100fd5780634e71d92d1461026f5780635c975abb146102845780636548e9bc146102af5780636ff1c9bc146102cf57806373b2e80e146102ef5780637b352f8e1461031f57600080fd5b80630d86419a146101e35780631bb43adc146102055780632dfdf0b51461022e578063313dab20146102445780633f4ba83a1461025a57600080fd5b366101de573460000361015f57604051631f2a200560e01b815260040160405180910390fd5b34600360008282546101719190610cda565b92505081905550346005600082825461018a9190610cda565b909155505060088054600101905560035460405133917fc94a5948d8e4ab05e59824a8fb295b49a6f5a7f8316b6f5d4bff81db97ae3e49916101d491348252602082015260400190565b60405180910390a2005b600080fd5b3480156101ef57600080fd5b506102036101fe366004610d09565b6104a0565b005b34801561021157600080fd5b5061021b60075481565b6040519081526020015b60405180910390f35b34801561023a57600080fd5b5061021b60085481565b34801561025057600080fd5b5061021b60035481565b34801561026657600080fd5b50610203610598565b34801561027b57600080fd5b506102036105aa565b34801561029057600080fd5b50600054600160a01b900460ff165b6040519015158152602001610225565b3480156102bb57600080fd5b506102036102ca366004610d33565b6105cc565b3480156102db57600080fd5b506102036102ea366004610d33565b61064d565b3480156102fb57600080fd5b5061029f61030a366004610d33565b60046020526000908152604090205460ff1681565b34801561032b57600080fd5b5061020361033a366004610d55565b61070e565b34801561034b57600080fd5b5060095461035f906001600160a01b031681565b6040516001600160a01b039091168152602001610225565b34801561038357600080fd5b5061020361077c565b34801561039857600080fd5b506000546001600160a01b031661035f565b3480156103b657600080fd5b5061021b60025481565b3480156103cc57600080fd5b5061029f6103db366004610d33565b61078c565b3480156103ec57600080fd5b506103f56107d5565b604080519788526020880196909652948601939093526060850191909152608084015260a0830152151560c082015260e001610225565b61020361081c565b34801561044057600080fd5b5061021b60065481565b34801561045657600080fd5b50610203610465366004610d33565b6108d3565b34801561047657600080fd5b5061021b60055481565b34801561048c57600080fd5b5061020361049b366004610d33565b610960565b6104a86109a0565b6104b06109dc565b6001600160a01b0382166104d75760405163d92e233d60e01b815260040160405180910390fd5b806000036104f857604051631f2a200560e01b815260040160405180910390fd5b60035481111561051b576040516310162d2d60e01b815260040160405180910390fd5b806003600082825461052d9190610d6e565b9091555061053d90508282610a06565b816001600160a01b03167fca7c146a476020a9685b6af4c572d3e244456e8d02dad016e5ed59ff64a2fdd982600354604051610583929190918252602082015260400190565b60405180910390a261059460018055565b5050565b6105a06109a0565b6105a8610a7f565b565b6105b2610ac2565b6105ba6109dc565b6105c333610aed565b6105a860018055565b6105d46109a0565b6001600160a01b0381166105fb5760405163d92e233d60e01b815260040160405180910390fd5b600980546001600160a01b038381166001600160a01b0319831681179093556040519116919082907f605ca4e43489fb38b91aa63dd9147cd3847957694b080b9285ec898b34269f0c90600090a35050565b6106556109a0565b61065d610c07565b6106656109dc565b6001600160a01b03811661068c5760405163d92e233d60e01b815260040160405180910390fd5b4760008190036106af57604051631f2a200560e01b815260040160405180910390fd5b60006003556106be8282610a06565b816001600160a01b03167f5fafa99d0643513820be26656b45130b01e1c03062e1266bf36f88cbd3bd9695826040516106f991815260200190565b60405180910390a25061070b60018055565b50565b6107166109a0565b806000036107375760405163dc6b7a6d60e01b815260040160405180910390fd5b600280549082905560408051828152602081018490527f16a3e0bd673c312def942f878be9ff5b14046d93d685905096a192fc8677eb5a910160405180910390a15050565b6107846109a0565b6105a8610c31565b6001600160a01b03811660009081526004602052604081205460ff161580156107b9575060025460035410155b80156107cf5750600054600160a01b900460ff16155b92915050565b600080600080600080600060035460025460055460065460075460085461080660005460ff600160a01b9091041690565b959d949c50929a50909850965094509092509050565b610824610ac2565b61082c6109dc565b3460000361084d57604051631f2a200560e01b815260040160405180910390fd5b346003600082825461085f9190610cda565b9250508190555034600560008282546108789190610cda565b909155505060088054600101905560035460405133917fc94a5948d8e4ab05e59824a8fb295b49a6f5a7f8316b6f5d4bff81db97ae3e49916108c291348252602082015260400190565b60405180910390a26105a860018055565b6108db610ac2565b6108e36109dc565b6009546001600160a01b0316331480159061090957506000546001600160a01b03163314155b156109275760405163c64891a560e01b815260040160405180910390fd5b6001600160a01b03811661094e5760405163d92e233d60e01b815260040160405180910390fd5b61095781610aed565b61070b60018055565b6109686109a0565b6001600160a01b03811661099757604051631e4fbdf760e01b8152600060048201526024015b60405180910390fd5b61070b81610c74565b336109b36000546001600160a01b031690565b6001600160a01b0316146105a85760405163118cdaa760e01b815233600482015260240161098e565b6002600154036109ff57604051633ee5aeb560e01b815260040160405180910390fd5b6002600155565b6000826001600160a01b03168260405160006040518083038185875af1925050503d8060008114610a53576040519150601f19603f3d011682016040523d82523d6000602084013e610a58565b606091505b5050905080610a7a576040516312171d8360e31b815260040160405180910390fd5b505050565b6000805460ff60a01b191690556040513381527f5db9ee0a495bf2e6ff9c91a7834c1ba4fdd244a5e8aa4e537bd38aeae4b073aa906020015b60405180910390a1565b600054600160a01b900460ff16156105a85760405163d93c066560e01b815260040160405180910390fd5b6001600160a01b03811660009081526004602052604090205460ff1615610b2757604051630c8d9eab60e31b815260040160405180910390fd5b6002546003541015610b4c576040516310162d2d60e01b815260040160405180910390fd5b6002546001600160a01b0382166000908152600460205260408120805460ff1916600117905560038054839290610b84908490610d6e565b925050819055508060066000828254610b9d9190610cda565b9091555050600780546001019055610bb58282610a06565b816001600160a01b03167fc940e8611481ba02e6bf68c3bc92218ca6b7b0735973ef504745eac213dd13bd82600354604051610bfb929190918252602082015260400190565b60405180910390a25050565b600054600160a01b900460ff166105a857604051638dfc202b60e01b815260040160405180910390fd5b6000805460ff60a01b1916600160a01b1790556040513381527f62e78cea01bee320cd4e420270b5ea74000d11b0c9f74754ebdbfc544b05a25890602001610ab8565b600080546001600160a01b038381166001600160a01b0319831681178455604051919092169283917f8be0079c531659141344cd1fd0a4f28419497f9722a3daafe3b4186f6b6457e09190a35050565b634e487b7160e01b600052601160045260246000fd5b808201808211156107cf576107cf610cc4565b80356001600160a01b0381168114610d0457600080fd5b919050565b60008060408385031215610d1c57600080fd5b610d2583610ced565b946020939093013593505050565b600060208284031215610d4557600080fd5b610d4e82610ced565b9392505050565b600060208284031215610d6757600080fd5b5035919050565b818103818111156107cf576107cf610cc456fea2646970667358221220403b74907145e85a119ab1de0e19529318728fd760402f5da85a41f7f97c075464736f6c63430008180033",
  "linkReferences": {},
  "deployedLinkReferences": {}
}